:020000040800F2
:1000000000800020010B0008A50A0008AB0A0008C8
:10001000B10A0008B70A0008BD0A00080000000085
:10002000000000000000000000000000C30A0008FB
:10003000CF0A000800000000DB0A0008E70A0008F9
:10004000510B0008510B0008510B0008510B000820
:10005000510B0008510B0008510B0008510B000810
:10006000510B0008510B0008510B0008510B000800
:10007000510B0008510B0008510B0008510B0008F0
:10008000510B0008510B0008510B0008510B0008E0
:1000900000000000510B0008510B0008510B000834
:1000A000510B0008510B0008510B0008510B0008C0
:1000B000510B0008510B0008510B0008510B0008B0
:1000C000510B0008510B0008510B0008510B0008A0
:1000D000510B0008510B0008510B0008510B000890
:1000E000510B0008510B0008510B0008510B000880
:1000F000510B00080000000000000000510B000838
:10010000510B0008510B0008510B0008510B00085F
:10011000510B0008510B0008510B0008510B00084F
:10012000510B0008510B0008510B0008510B00083F
:08013000510B0008510B0008FF
:1001380010B5054C237833B9044B13B10448AFF319
:1001480000800123237010BD14000020000000006F
:10015800A830000808B5034B1BB103490348AFF3A7
:10016800008008BD0000000018000020A83000082A
:1001780080B485B000AF78604FF0B043DA6C4FF0D0
:10018800B0417B681343CB644FF0B043DA6C7B68B3
:100198001340FB60FB6800BF1437BD4680BC704746
:1001A80080B582B000AF00F0D1FC00F057F800F045
:1001B800E5F800F0A5F800F039F94123BB800021EB
:1001C800002000F09BFA0A210A2000F097FA012289
:1001D8001E491F4800F028FB1E210A2000F08EFA55
:1001E80000F0E8F9012219491A4800F01DFB00F057
:1001F800E1F9642000F020FD00F03BFB00BF012185
:100208004FF0904000F07EFF0346002B1AD100F01B
:1002180030FB0021002000F071FA3B1D01220B4940
:10022800184600F001FB00F0C5F93B790133DBB259
:100238003B712021084800F093FF4FF47A7000F0DA
:10024800FBFCDCE700F0E8F8D9E700BF000000207D
:10025800C0300008CC3000080004004880B59AB0CF
:1002680000AF07F1200348220021184602F010FFD2
:1002780007F1080300221A605A609A60DA601A616E
:100288005A611E4B1B6823F4C0631C4A43F4806305
:1002980013601A4B1B6803F4C0637B607B682023E0
:1002A8003B6201233B6400237B646023BB6400231F
:1002B800FB6407F12003184601F090FE0346002B6B
:1002C80001D000F0A3F84F23BB600023FB6000239C
:1002D8003B6100237B610023BB610023FB6107F1C5
:1002E80008030021184602F013FA0346002B01D038
:1002F80000F08CF800BF6837BD4680BD0004005888
:1003080080B500AF1B4B1C4A1A601A4B04225A6076
:10031800184B00229A60174B0122DA60154B002215
:100328001A61144B00225A61124B00229A61114B38
:100338000022DA610F4B00221A620E4800F029FFF2
:100348000346002B01D000F061F80021094801F0B4
:100358001BFB0346002B01D000F058F8002105488C
:1003680001F05CFB0346002B01D000F04FF800BF02
:1003780080BD00BF380400200058004080B586B01A
:1003880000AF3B1D00221A605A609A60DA601A6159
:100398000120FFF7EDFE0220FFF7EAFE00222021F0
:1003A800194800F0C6FE002230214FF0904000F0BE
:1003B800C0FE20237B600123BB600023FB60002379
:1003C8003B613B1D1946104800F03CFD01237B6052
:1003D8000023BB600123FB603B1D19464FF0904092
:1003E80000F030FD30237B600123BB600023FB60FD
:1003F80000233B613B1D19464FF0904000F022FD61
:1004080000BF1837BD4680BD0004004880B400AF67
:1004180000BFBD4680BC704780B500AF2E220021CA
:10042800782000F08BFA00BF80BD000080B582B054
:1004380000AF00F027FA44F62063012278215B48D8
:1004480001F02AF80346002B01D00023A9E040F66A
:10045800C4137B6002E07B68013B7B607B68002BF8
:10046800F9D1AE220021782000F068FA202200217C
:10047800782000F063FA10220021782000F05EFA5C
:10048800B0220021782000F059FAC82200217820F3
:1004980000F054FA00220021782000F04FFA1022D0
:1004A8000021782000F04AFA40220021782000F04C
:1004B80045FA81220021782000F040FAFF2200212D
:1004C800782000F03BFAA1220021782000F036FACB
:1004D800A6220021782000F031FAA82200217820F5
:1004E80000F02CFA3F220021782000F027FAA422FD
:1004F8000021782000F022FAD3220021782000F091
:100508001DFA00220021782000F018FAD5220021D7
:10051800782000F013FAF0220021782000F00EFA7B
:10052800D9220021782000F009FA2222002178201F
:1005380000F004FADA220021782000F0FFF91222F4
:100548000021782000F0FAF9DB220021782000F061
:10055800F5F920220021782000F0F0F98D22002101
:10056800782000F0EBF914220021782000F0E6F959
:10057800AF220021782000F0E1F92E220021782016
:1005880000F0DCF9002000F043F800F013F8084B05
:1005980000221A80064B00225A80054B01225A710C
:1005A800012318460837BD4680BD00BF3804002027
:1005B8003004002080B582B000AF0023FB711DE03D
:1005C800FB79503BDBB21A460021782000F0B6F9DF
:1005D80000220021782000F0B1F9102200217820B3
:1005E80000F0ACF9FB79DB01084A1A44802340216A
:1005F800782000F05BF9FB790133FB71FB79072B5D
:10060800DED900BF00BF0837BD4680BD30000020DE
:1006180080B582B000AF0346FB71FB79002B01D196
:10062800002300E0FF234FF480621946034802F0DC
:100638002FFD00BF0837BD4680BD00BF3000002039
:1006480080B483B000AF0346FB800B46BB801346E3
:10065800FB70FB887F2B48D8BB883F2B45D8254BA0
:100668001B79002B06D0FB78002B0CBF012300233D
:10067800DBB2FB70FB78012B1AD1FA88BB88DB0848
:1006880098B20346DB0113441B4AD35C5AB2BB88B9
:1006980003F00703012101FA03F35BB2134359B2D4
:1006A800FA880346DB011344C9B2134AD1541DE04A
:1006B800FA88BB88DB0898B20346DB0113440E4A6C
:1006C800D35C5AB2BB8803F00703012101FA03F394
:1006D8005BB2DB435BB2134059B2FA880346DB01D5
:1006E8001344C9B2044AD15400E000BF0C37BD46D8
:1006F80080BC7047300400203000002080B483B0F4
:1007080000AF03460A46FB801346BB80054AFB88B8
:100718001380044ABB88538000BF0C37BD4680BC99
:10072800704700BF3004002080B586B000AF034694
:100738003960FB711346BB713A4B1B881A463B68FC
:100748001B7813447F2B07DC364B5B881A463B68C3
:100758005B7813443F2B01DD00235EE000237B61BF
:100768004BE03B685A68FB79203B3968497801FBC4
:1007780003F319467B690B445B0013441B88FB6039
:1007880000233B6130E0FA683B6902FA03F303F4A3
:100798000043002B10D0234B1A883B699BB21344AB
:1007A80098B2204B5A887B699BB213449BB2BA79A2
:1007B8001946FFF745FF14E01A4B1A883B699BB2AC
:1007C800134498B2174B5A887B699BB2134499B269
:1007D800BB79002B0CBF01230023DBB21A46FFF7BD
:1007E8002FFF3B6901333B613B681B781A463B6925
:1007F8009342C8D37B6901337B613B685B781A46B7
:100808007B699342ADD3074B1A883B681B789BB230
:1008180013449AB2034B1A80FB7918461837BD4621
:1008280080BD00BF3004002080B584B000AFF86000
:10083800B9601346FB7112E0FB681B78FA79B96856
:100848001846FFF771FF03461A46FB681B789A4261
:1008580002D0FB681B7808E0FB680133FB60FB688B
:100868001B78002BE8D1FB681B7818461037BD466B
:1008780080BD80B500AF0020FFF7CAFEFFF79AFEE3
:1008880000BF80BD80B483B000AF074B7B6002E03F
:100898007B68013B7B607B68002BF9D100BF00BF00
:1008A8000C37BD4680BC704790D0030090B5C7B0E8
:1008B80002AF0446084639460A601946FB1D22461F
:1008C8001A70BB1D02461A703B1D0A461A8007F1B2
:1008D8000C03BA1D12781A70002387F80F3110E044
:1008E80097F80F313A4612681A4497F80F310133D6
:1008F800117807F10C02D15497F80F31013387F8BA
:100908000F3197F80F319BB23A1D12889A42E7D8F7
:10091800FB1D1B7899B23B1D1B8801339BB207F165
:100928000C020A200090044800F0C2FC00BF07F542
:100938008A77BD4690BD00BF3804002080B586B0D8
:1009480002AF0346FB710B46BB7113467B71BB7943
:100958003B737B797B73FB7999B207F10C020A230D
:1009680000930223034800F0A3FC00BF1037BD46E4
:1009780080BD00BF3804002080B485B000AF786027
:100988004FF0B043DA6C4FF0B0417B681343CB644F
:100998004FF0B043DA6C7B681340FB60FB6800BF24
:1009A8001437BD4680BC704780B485B000AF78600E
:1009B8004FF0B0439A6D4FF0B0417B6813438B659D
:1009C8004FF0B0439A6D7B681340FB60FB6800BF33
:1009D8001437BD4680BC704780B400AF00BFBD4629
:1009E80080BC704780B596B000AF786007F14403CB
:1009F80000221A605A609A60DA601A6107F10C03E3
:100A080038220021184602F043FB7B681B68214A04
:100A180093423BD18023FB604FF440237B6207F174
:100A28000C03184602F0F6F90346002B01D0FFF735
:100A3800EDFC0120FFF7A0FF0220FFF79DFF4FF418
:100A480000437B641223BB640123FB6400233B65E2
:100A580004237B6507F1440319464FF0904000F0EA
:100A6800F1F94FF400437B641223BB640123FB6458
:100A780000233B6504237B6507F1440319460648B8
:100A880000F0E0F94FF48000FFF78EFF00BF583701
:100A9800BD4680BD005800400004004880B400AF47
:100AA800FEE780B400AFFEE780B400AFFEE780B495
:100AB80000AFFEE780B400AFFEE780B400AF00BF30
:100AC800BD4680BC704780B400AF00BFBD4680BC47
:100AD800704780B400AF00BFBD4680BC704780B58A
:100AE80000AF00F08DF800BF80BD80B400AF00BF3C
:100AF800BD4680BC704700000D488546FFF7F5FFEE
:100B08000C480D490D4A002302E0D458C450043360
:100B1800C4188C42F9D30A4A0A4C002301E0136036
:100B28000432A242FBD302F08FFAFFF739FBFEE74B
:100B3800008000200000002014000020D03E0008A3
:100B48001400002088040020FEE7000080B582B071
:100B580000AF0023FB71032000F042F901F09CFF75
:100B68000346094A13600F2000F010F80346002BD3
:100B780002D00123FB7101E0FFF72EFFFB79184635
:100B88000837BD4680BD00BF0800002080B584B08E
:100B980000AF78600023FB73174B1B78002B24D021
:100BA80001F07AFF0246144B1B7819464FF47A730A
:100BB800B3FBF1F3B2FBF3F3184600F036F9034642
:100BC800002B0FD17B680F2B09D8002279684FF0D2
:100BD800FF3000F010F9094A7B68136007E0012331
:100BE800FB7304E00123FB7301E00123FB73FB7B30
:100BF80018461037BD4680BD100000200C000020AC
:100C080080B400AF054B1B781A46054B1B6813448C
:100C1800034A136000BFBD4680BC70471000002027
:100C28008404002080B400AF024B1B681846BD4600
:100C380080BC70478404002080B584B000AF786021
:100C4800FFF7F0FFB8607B68FB60FB68B3F1FF3F1C
:100C580005D00A4B1B781A46FB681344FB6000BF9B
:100C6800FFF7E0FF0246BB68D31AFA689A42F7D842
:100C780000BF00BF1037BD4680BD00BF1000002078
:100C880080B485B000AF78607B6803F00703FB6031
:100C98000C4BDB68BB60BA684FF6FF031340BB60C0
:100CA800FB681A02BB68134343F0BF6343F4003385
:100CB800BB60044ABB68D36000BF1437BD4680BC24
:100CC800704700BF00ED00E080B400AF044BDB6864
:100CD8001B0A03F007031846BD4680BC704700BFD7
:100CE80000ED00E080B483B000AF03463960FB71CB
:100CF80097F90730002B0ADB3B68DAB20C4997F901
:100D080007301201D2B20B4483F800230AE03B6893
:100D1800DAB20849FB7903F00F03043B1201D2B29F
:100D28000B441A7600BF0C37BD4680BC704700BF25
:100D380000E100E000ED00E080B489B000AFF860A9
:100D4800B9607A60FB6803F00703FB61FB69C3F1D4
:100D58000703042B28BF0423BB61FB690433062B5C
:100D680002D9FB69033B00E000237B614FF0FF32AF
:100D7800BB6902FA03F3DA43BB681A407B699A40FD
:100D88004FF0FF317B6901FA03F3D9437B680B40CD
:100D9800134318462437BD4680BC704780B582B0DF
:100DA80000AF78607B68013BB3F1807F01D30123FA
:100DB8000FE00A4A7B68013B53600F214FF0FF3078
:100DC800FFF790FF054B00229A60044B07221A6038
:100DD800002318460837BD4680BD00BF10E000E07C
:100DE80080B582B000AF78607868FFF749FF00BF30
:100DF8000837BD4680BD80B586B000AF0346B960F0
:100E08007A60FB73FFF760FF78617A68B968786980
:100E1800FFF792FF024697F90F3011461846FFF781
:100E280061FF00BF1837BD4680BD80B582B000AFF6
:100E380078607868FFF7B2FF034618460837BD4662
:100E480080BD000080B487B000AF786039600023AF
:100E58007B6140E13B681A6801217B6901FA03F371
:100E68001340FB60FB68002B00F032813B685B6835
:100E7800012B0BD03B685B68022B07D03B685B6893
:100E8800112B03D03B685B68122B30D17B689B68C1
:100E98003B617B695B00032202FA03F3DB433A6997
:100EA80013403B613B68DA687B695B0002FA03F335
:100EB8003A6913433B617B683A699A607B685B686F
:100EC8003B6101227B6902FA03F3DB433A69134071
:100ED8003B613B685B681B0903F001027B6902FA0E
:100EE80003F33A6913433B617B683A695A607B684C
:100EF800DB683B617B695B00032202FA03F3DB4397
:100F08003A6913403B613B689A687B695B0002FA67
:100F180003F33A6913433B617B683A69DA603B68DB
:100F28005B68022B03D03B685B68122B23D17B697B
:100F3800DA087B68083253F822303B617B6903F09A
:100F480007039B000F2202FA03F3DB433A691340BD
:100F58003B613B681A697B6903F007039B0002FA4F
:100F680003F33A6913433B617B69DA087B6808320B
:100F7800396943F822107B681B683B617B695B0019
:100F8800032202FA03F3DB433A6913403B613B68EF
:100F98005B6803F003027B695B0002FA03F33A69BA
:100FA80013433B617B683A691A603B685B6803F0EE
:100FB8008053002B00F08C804E4A7B699B080233DB
:100FC80052F823303B617B6903F003039B0007223F
:100FD80002FA03F3DB433A6913403B617B68B3F1E0
:100FE800904F0DD07B68444A934207D07B68434AB0
:100FF800934201D1022304E0072302E0012300E029
:1010080000237A6902F00302920093403A6913437D
:101018003B6138497B699B0802333A6941F82320D0
:10102800374BD3F880303B61FB68DB433A691340A8
:101038003B613B685B6803F48033002B03D03A695B
:10104800FB6813433B612E4A3B69C2F880302C4B46
:10105800D3F884303B61FB68DB433A6913403B615A
:101068003B685B6803F40033002B03D03A69FB68E4
:1010780013433B61224A3B69C2F88430204B1B680A
:101088003B61FB68DB433A6913403B613B685B6843
:1010980003F48013002B03D03A69FB6813433B61C8
:1010A800174A3B691360164B5B683B61FB68DB437F
:1010B8003A6913403B613B685B6803F40013002BFB
:1010C80003D03A69FB6813433B610D4A3B6953609F
:1010D8007B6901337B613B681A687B6922FA03F3F9
:1010E800002B7FF4B7AE00BF00BF1C37BD4680BCE5
:1010F800704700BF00000140000400480008004895
:101108000008005880B485B000AF78600B467B803B
:101118007B681A697B881340002B02D00123FB737C
:1011280001E00023FB73FB7B18461437BD4680BCE7
:10113800704780B483B000AF78600B467B8013465D
:101148007B707B78002B03D07A887B689A6102E0F9
:101158007A887B689A6200BF0C37BD4680BC7047AE
:1011680080B485B000AF78600B467B807B685B6994
:10117800FB607A88FB6813401A04FB68D9437B88B4
:101188000B401A437B689A6100BF1437BD4680BC88
:10119800704780B582B000AF78607B68002B01D1C2
:1011A800012381E07B6893F84130DBB2002B06D144
:1011B8007B68002283F840207868FFF713FC7B687F
:1011C800242283F841207B681B681A687B681B68A7
:1011D80022F001021A607B685A687B681B6822F05B
:1011E80070621A617B681B689A687B681B6822F4C6
:1011F80000429A607B68DB68012B07D17B689A689C
:101208007B681B6842F400429A6006E07B689A6833
:101218007B681B6842F404429A607B68DB68022B97
:1012280004D17B681B684FF400625A607B681B68B6
:101238005B687A68126843F0007343F400435360B4
:101248007B681B68DA687B681B6822F40042DA60F6
:101258007B681A697B685B6942EA03017B689B6962
:101268001A027B681B680A43DA607B68D9697B6865
:101278001A6A7B681B680A431A607B681B681A68CD
:101288007B681B6842F001021A607B6800225A647E
:101298007B68202283F841207B6800221A637B68E0
:1012A800002283F84220002318460837BD4680BD37
:1012B80080B588B002AFF8607A601A460B467B8129
:1012C80013463B81FB6893F84130DBB2202B40F09A
:1012D800DA80FB6893F84030012B01D10223D3E078
:1012E800FB68012283F84020FFF79CFC78617B694A
:1012F8000093192301224FF40041F86800F0F6F931
:101308000346002B01D00123BEE0FB68212283F8AD
:101318004120FB68102283F84220FB6800225A64AF
:10132800FB687A685A62FB683A895A85FB6800222A
:101338005A63FB685B8D9BB2FF2B0ED9FB68FF22BB
:101348001A85FB681B8DDAB27989514B00934FF0EF
:101358008073F86800F0ECFA6CE0FB685B8D9AB279
:10136800FB681A85FB681B8DDAB27989484B0093B4
:101378004FF00073F86800F0DBFA5BE07A69396ACD
:10138800F86800F0F3F90346002B01D001237BE055
:10139800FB685B6A1A78FB681B689A62FB685B6A81
:1013A8005A1CFB685A62FB685B8D9BB2013B9AB280
:1013B800FB685A85FB681B8D013B9AB2FB681A854E
:1013C800FB685B8D9BB2002B34D0FB681B8D002B18
:1013D80030D17B6900933B6A00228021F86800F0D5
:1013E80085F90346002B01D001234DE0FB685B8D96
:1013F8009BB2FF2B0ED9FB68FF221A85FB681B8D59
:10140800DAB27989002300934FF08073F86800F00E
:101418008FFA0FE0FB685B8D9AB2FB681A85FB6850
:101428001B8DDAB27989002300934FF00073F868B6
:1014380000F07EFAFB685B8D9BB2002B9ED17A6927
:10144800396AF86800F0D2F90346002B01D001236D
:101458001AE0FB681B682022DA61FB681B68596880
:10146800FB681A680B4B0B405360FB68202283F81B
:101478004120FB68002283F84220FB68002283F8A1
:101488004020002300E0022318461837BD4680BDDF
:101498000020008000E800FE80B58AB002AFF86046
:1014A8007A603B600B467B8100237B61FB6893F885
:1014B8004130DBB2202B40F0F180FB681B689B6950
:1014C80003F40043B3F5004F01D10223E7E0FB68C2
:1014D80093F84030012B01D10223E0E0FB680122A0
:1014E80083F84020FB68242283F84120FB6800220F
:1014F8005A64FB68DB68012B07D17B89C3F30903B6
:1015080043F0007343F4005304E07B89C3F30903F9
:1015180043F42053FA6812685360FFF783FBB861FD
:10152800FB681B689B6903F02003202B0CBF012379
:101538000023DBB2FB77FB681B689B6903F0100391
:10154800102B0CBF01230023DBB2BB7734E03B68D0
:10155800B3F1FF3F1AD0FFF765FB0246BB69D31A08
:101568003A689A4202D33B68002B0FD1FB682022CD
:1015780083F84120FB685B6C43F02002FB685A64E7
:10158800FB68002283F84020012388E0FB681B6881
:101598009B6903F02003202B0CBF01230023DBB23F
:1015A800FB77FB681B689B6903F01003102B0CBFCB
:1015B80001230023DBB2BB77FB7F002B02D1BB7F6B
:1015C800002BC4D0FB681B689B6903F01003102B29
:1015D8001AD0BB6900933B6800222021F86800F00C
:1015E80085F80346002B01D0012358E0FB681B68EF
:1015F8002022DA61FB68202283F84120FB68002260
:1016080083F8402000234AE0BB6900933B6800222E
:101618002021F86800F06AF80346002B01D0012366
:101628003DE0FB681B681022DA61FB681B6820221A
:10163800DA617B697A689A4218D1FB681B685A6834
:10164800FB681B6842F480425A60BB6900933B68A0
:1016580000222021F86800F049F80346002B01D049
:1016680001231CE0FB681B682022DA617B690133D7
:101678007B617B697A689A423FF63BAFFB68202220
:1016880083F84120FB685B6C43F02002FB685A64D6
:10169800FB68002283F84020012300E0022318465B
:1016A8002037BD4680BD80B483B000AF78607B68CA
:1016B8001B689B6903F00203022B03D17B681B683C
:1016C80000229A627B681B689B6903F00103012B67
:1016D80007D07B681B689A697B681B6842F0010227
:1016E8009A6100BF0C37BD4680BC704780B584B096
:1016F80000AFF860B9603B601346FB7122E03B68BD
:10170800B3F1FF3F1ED0FFF78DFA0246BB69D31A2B
:101718003A689A4202D33B68002B13D1FB685B6C92
:1017280043F02002FB685A64FB68202283F84120BA
:10173800FB68002283F84220FB68002283F84020DF
:1017480001230FE0FB681B689A69BB681340BA68FD
:101758009A420CBF01230023DBB21A46FB799A4256
:10176800CDD0002318461037BD4680BD80B584B063
:1017780000AFF860B9607A602CE07A68B968F868F8
:1017880000F070F80346002B01D001232AE0BB6863
:10179800B3F1FF3F1ED0FFF745FA02467B68D31A24
:1017A800BA689A4202D3BB68002B13D1FB685B6C02
:1017B80043F02002FB685A64FB68202283F841202A
:1017C800FB68002283F84220FB68002283F840204F
:1017D800012307E0FB681B689B6903F00203022BE7
:1017E800CBD1002318461037BD4680BD80B584B0E4
:1017F80000AFF860B9607A6028E07A68B968F8687C
:1018080000F030F80346002B01D0012326E0FFF753
:1018180009FA02467B68D31ABA689A4202D3BB68AF
:10182800002B13D1FB685B6C43F02002FB685A6401
:10183800FB68202283F84120FB68002283F84220BD
:10184800FB68002283F84020012307E0FB681B683F
:101858009B6903F02003202BCFD1002318461037B3
:10186800BD4680BD80B584B000AFF860B9607A60CD
:10187800FB681B689B6903F01003102B51D122E011
:10188800BB68B3F1FF3F1ED0FFF7CCF902467B6877
:10189800D31ABA689A4202D3BB68002B13D1FB68EB
:1018A8005B6C43F02002FB685A64FB68202283F8D3
:1018B8004120FB68002283F84220FB68002283F85D
:1018C800402001232EE0FB681B689B6903F020037E
:1018D800202BD5D1FB681B681022DA61FB681B68D6
:1018E8002022DA61F868FFF7DEFEFB681B6859689A
:1018F800FB681A680D4B0B405360FB685B6C43F048
:101908000402FB685A64FB68202283F84120FB68C4
:10191800002283F84220FB68002283F8402001233C
:1019280000E0002318461037BD4680BD00E800FEE1
:1019380080B485B000AFF8607B600B467B811346AE
:101948007B72FB681B685A68BB695B0D03F4806196
:101958000C4B0B43DB4302EA03017B89C3F3090207
:101968007B7A1B0403F47F031A437B681A43BB6921
:101978001A43FB681B680A435A6000BF1437BD4608
:1019880080BC7047FF63FF0380B483B000AF78600A
:1019980039607B6893F84130DBB2202B38D17B6803
:1019A80093F84030012B01D1022332E07B680122F9
:1019B80083F840207B68242283F841207B681B68D9
:1019C8001A687B681B6822F001021A607B681B6832
:1019D8001A687B681B6822F480521A607B681B684F
:1019E80019687B681B683A680A431A607B681B6839
:1019F8001A687B681B6842F001021A607B68202223
:101A080083F841207B68002283F84020002300E00F
:101A1800022318460C37BD4680BC704780B485B099
:101A280000AF786039607B6893F84130DBB2202BD7
:101A380039D17B6893F84030012B01D1022333E080
:101A48007B68012283F840207B68242283F84120A8
:101A58007B681B681A687B681B6822F001021A60A1
:101A68007B681B681B68FB60FB6823F47063FB6082
:101A78003B681B02FA681343FB607B681B68FA68C3
:101A88001A607B681B681A687B681B6842F0010251
:101A98001A607B68202283F841207B68002283F843
:101AA8004020002300E0022318461437BD4680BCBE
:101AB8007047000080B400AF044B1B68034A43F42E
:101AC8008073136000BFBD4680BC70470004005897
:101AD80080B400AF034B1B6803F4C0631846BD46CF
:101AE80080BC70470004005880B400AF064B1B68E8
:101AF80003F48073B3F5807F01D1012300E0002354
:101B08001846BD4680BC70470004005880B400AF3A
:101B18004FF0B0431B684FF0B04243F4001313601A
:101B280000BFBD4680BC704780B400AF4FF0B043E3
:101B38001B684FF0B04223F40013136000BFBD468A
:101B480080BC704780B400AF4FF0B0431B6803F40B
:101B58008013B3F5801F01D1012300E0002318464C
:101B6800BD4680BC704780B400AF4FF0B0431B68DF
:101B78004FF0B04243F48033136000BFBD4680BCD1
:101B8800704780B400AF4FF0B0431B684FF0B042CD
:101B980023F48033136000BFBD4680BC704780B417
:101BA80000AF4FF0B0431B6803F40033B3F5003FB8
:101BB80001D1012300E000231846BD4680BC7047D0
:101BC80080B400AF4FF0B0431B684FF0B04243F40D
:101BD8008073136000BFBD4680BC704780B400AFFF
:101BE8004FF0B0431B684FF0B04223F4807313608A
:101BF80000BFBD4680BC704780B400AF4FF0B04313
:101C08001B6803F48063B3F5806F01D1012300E002
:101C180000231846BD4680BC704780B483B000AF2F
:101C280078604FF0B0435B6823F0FE427B681B0688
:101C38004FF0B04113434B6000BF0C37BD4680BC2A
:101C4800704780B400AF4FF0B043D3F8903003F042
:101C58000203022B01D1012300E000231846BD46F0
:101C680080BC704780B400AF4FF0B043D3F89430D5
:101C78004FF0B04243F00103C2F8943000BFBD46B4
:101C880080BC704780B400AF4FF0B043D3F89430B5
:101C98004FF0B04223F00103C2F8943000BFBD46B4
:101CA80080BC704780B400AF4FF0B043D3F8943095
:101CB80003F00203022B01D1012300E000231846A0
:101CC800BD4680BC704780B400AF4FF0B0431B687E
:101CD8004FF0B04243F00103136000BFBD4680BC23
:101CE800704780B400AF4FF0B0431B684FF0B0426C
:101CF80023F00103136000BFBD4680BC704780B469
:101D080000AF4FF0B0431B6803F00203022B01D170
:101D1800012300E000231846BD4680BC704780B40C
:101D280000AF4FF0B0431B6803F00803082B01D144
:101D3800012300E000231846BD4680BC704780B4EC
:101D480000AF4FF0B0431B6803F0F0031846BD46E0
:101D580080BC704780B400AF4FF0B043D3F89430E4
:101D680003F470631846BD4680BC704780B483B0E6
:101D780000AF78604FF0B0435B6823F47F427B6824
:101D88001B024FF0B04113434B6000BF0C37BD46F8
:101D980080BC704780B483B000AF78604FF0B04328
:101DA8009B6823F003024FF0B0417B6813438B60BC
:101DB80000BF0C37BD4680BC704780B400AF4FF001
:101DC800B0439B6803F00C031846BD4680BC7047BF
:101DD80080B483B000AF78604FF0B0439B6823F0C5
:101DE800F0024FF0B0417B6813438B6000BF0C37A3
:101DF800BD4680BC704780B483B000AF78604FF0B8
:101E0800B043D3F8083123F00F027B681B094FF069
:101E1800B0411343C1F8083100BF0C37BD4680BC40
:101E2800704780B483B000AF78604FF0B0439B68D0
:101E380023F4E0624FF0B0417B6813438B6000BF2E
:101E48000C37BD4680BC704780B483B000AF786063
:101E58004FF0B0439B6823F460524FF0B0417B6869
:101E680013438B6000BF0C37BD4680BC704780B4FD
:101E780000AF4FF0B0439B6803F0F0031846BD462F
:101E880080BC704780B400AF4FF0B043D3F808313E
:101E98001B0103F0F0031846BD4680BC704780B4B0
:101EA80000AF4FF0B0431B684FF0B04243F080736F
:101EB800136000BFBD4680BC704780B400AF4FF0D0
:101EC800B0431B684FF0B04223F08073136000BF2B
:101ED800BD4680BC704780B400AF4FF0B0431B686C
:101EE80003F00073B3F1007F01D1012300E0002368
:101EF8001846BD4680BC704780B400AF4FF0B04371
:101F0800DB681B0A03F07F031846BD4680BC704798
:101F180080B400AF4FF0B043DB6803F0604318466D
:101F2800BD4680BC704780B400AF4FF0B043DB685B
:101F380003F070031846BD4680BC704780B400AFFC
:101F48004FF0B043DB6803F003031846BD4680BC7E
:101F5800704780B400AF4FF0B0439B6803F4803300
:101F6800B3F5803F01D1012300E000231846BD46A8
:101F780080BC704780B400AF4FF0B043D3F808314D
:101F880003F48033B3F5803F01D1012300E000233F
:101F98001846BD4680BC704780B400AF4FF0B043D0
:101FA8009B6803F40033B3F5003F01D1012300E03F
:101FB80000231846BD4680BC704780B400AF4FF080
:101FC800B0439B6803F48023B3F5802F01D101232C
:101FD80000E000231846BD4680BC704780B588B035
:101FE80000AF78607B68002B01D101238AE3FFF7FB
:101FF800E4FEF861FFF7A2FFB8617B681B6803F095
:102008002003002B00F0C980FB69002B05D0FB6979
:102018000C2B7BD1BB69012B78D1FFF770FE0346EF
:10202800002B05D07B681B6A002B01D1012369E3D3
:102038007B689A6A4FF0B0431B6803F00803002BD3
:1020480005D04FF0B0431B6803F0F00306E04FF0F3
:10205800B043D3F894301B0903F0F003934222D223
:102068007B689B6A184600F02BFD0346002B01D0C5
:10207800012347E34FF0B0431B684FF0B04243F0F1
:10208800080313604FF0B0431B6823F0F0027B682D
:102098009B6A4FF0B04113430B607B685B6A18463C
:1020A800FFF764FE21E04FF0B0431B684FF0B042E9
:1020B80043F0080313604FF0B0431B6823F0F002AD
:1020C8007B689B6A4FF0B04113430B607B685B6A87
:1020D8001846FFF74BFE7B689B6A184600F0F0FC39
:1020E8000346002B01D001230CE300F0D5FC034686
:1020F800B44A1360B44B1B681846FEF747FD034605
:10210800FB74FB7C002B47D0FB7CFBE27B681B6AE3
:10211800002B2CD0FFF7D7FDFEF784FD786108E08F
:10212800FEF780FD02467B69D31A022B01D90323EF
:10213800E8E2FFF7E4FD0346002BF1D04FF0B0438F
:102148001B684FF0B04243F0080313604FF0B043F0
:102158001B6823F0F0027B689B6A4FF0B041134381
:102168000B607B685B6A1846FFF700FE15E0FFF717
:10217800B8FDFEF757FD786108E0FEF753FD02460B
:102188007B69D31A022B01D90323BBE2FFF7B7FD02
:102198000346002BF1D100E000BF7B681B6803F009
:1021A8000103002B5FD0FB69082B05D0FB690C2BC2
:1021B8000DD1BB69032B0AD1FFF7F1FC0346002BB5
:1021C80050D07B685B68002B4CD101239AE24FF01A
:1021D800B0431B6823F480127B689B684FF0B041C2
:1021E80013430B607B685B68B3F5803F02D1FFF750
:1021F800BAFC0DE07B685B68B3F5041F04D1FFF7F8
:1022080085FCFFF7B0FC03E0FFF7BBFCFFF78CFC95
:102218007B685B68002B12D0FEF704FD786108E04C
:10222800FEF700FD02467B69D31A642B01D903230C
:1022380068E2FFF7B4FC0346002BF1D013E0FEF789
:10224800F1FC786108E0FEF7EDFC02467B69D31AE1
:10225800642B01D9032355E2FFF7A1FC0346002BA9
:10226800F1D100E000BF7B681B6803F00203002B7C
:102278004BD0FB69042B05D0FB690C2B13D1BB6930
:10228800022B10D1FFF7B8FC0346002B05D07B6862
:102298001B69002B01D1012334E27B685B69184676
:1022A800FFF7BBFC31E07B681B69002B19D0FFF7F7
:1022B80087FCFEF7B7FC786108E0FEF7B3FC02463E
:1022C8007B69D31A022B01D903231BE2FFF794FC85
:1022D8000346002BF1D07B685B691846FFF79DFC2D
:1022E80013E0FFF77BFCFEF79DFC786108E0FEF742
:1022F80099FC02467B69D31A022B01D9032301E218
:10230800FFF77AFC0346002BF1D17B681B6803F0CA
:102318000803002B6ED07B689B69002B56D04FF0CA
:10232800B043D3F89430FB607B68DA69FB6803F04C
:1023380010039A4231D0FB6803F00203002B06D049
:10234800FB6803F00103002B01D10123DAE1FB68EC
:1023580003F00103002B13D0FFF794FCFEF762FC97
:10236800786108E0FEF75EFC02467B69D31A112B00
:1023780001D90323C6E1FFF795FC0346002BF1D1F1
:102388004FF0B043D3F8943023F010027B68DB6938
:102398004FF0B0411343C1F89430FFF763FCFEF7E8
:1023A80041FC786108E0FEF73DFC02467B69D31AE0
:1023B800112B01D90323A5E1FFF774FC0346002B79
:1023C800F1D017E0080000200C000020FFF75AFCAD
:1023D800FEF728FC786108E0FEF724FC02467B69DA
:1023E800D31A112B01D903238CE1FFF75BFC0346B9
:1023F800002BF1D17B681B6803F00403002B00F06D
:10240800D880FFF771FB0346002B13D1FFF752FB6F
:10241800FEF708FC786108E0FEF704FC02467B69D9
:10242800D31A022B01D903236CE1FFF75DFB0346A6
:10243800002BF1D07B68DB68002B7BD07B68DB68E6
:10244800852B03D07B68DB68052B09D14FF0B0439F
:10245800D3F890304FF0B04243F00403C2F8903004
:10246800FEF7E0FB78614FF0B043D3F890304FF0BF
:10247800B04243F00103C2F890300AE0FEF7D2FB05
:1024880002467B69D31A41F28832934201D9032369
:1024980038E1FFF7D6FB0346002BEFD07B68DB68FB
:1024A800812B03D07B68DB68852B21D1FEF7BAFB33
:1024B80078614FF0B043D3F890304FF0B04243F01A
:1024C8008003C2F890300AE0FEF7ACFB02467B6955
:1024D800D31A41F28832934201D9032312E14FF013
:1024E800B043D3F8903003F40063002BECD060E0E5
:1024F800FEF798FB78614FF0B043D3F890304FF077
:10250800B04223F08003C2F890300AE0FEF78AFB5D
:1025180002467B69D31A41F28832934201D90323D8
:10252800F0E04FF0B043D3F8903003F40063002B91
:10253800ECD13EE0FEF776FB78614FF0B043D3F87C
:1025480090304FF0B04223F08003C2F890300AE098
:10255800FEF768FB02467B69D31A41F28832934240
:1025680001D90323CEE04FF0B043D3F8903003F401
:102578000063002BECD1FEF755FB78614FF0B043B8
:10258800D3F890304FF0B04223F00103C2F89030F6
:102598000AE0FEF747FB02467B69D31A41F288320C
:1025A800934201D90323ADE0FFF74BFB0346002B11
:1025B800EFD17B68DB6A002B00F0A380FB690C2B52
:1025C80076D07B68DB6A022B4BD1FFF776FCFEF7EF
:1025D80029FB786108E0FEF725FB02467B69D31AE0
:1025E8000A2B01D903238DE0FFF775FC0346002B66
:1025F800F1D14FF0B043DA68444B13407A68116B5D
:102608007A68526B11437A68926B120211437A68A6
:10261800D26B11437A68126C11437A68526C0A4380
:102628004FF0B0411343CB60FFF739FC4FF0B04394
:10263800DB684FF0B04243F08053D360FEF7F2FA04
:10264800786108E0FEF7EEFA02467B69D31A0A2B96
:1026580001D9032356E0FFF73EFC0346002BF1D0D7
:102668004FE0FFF72AFC4FF0B043DB684FF0B04271
:1026780023F00303D3604FF0B043DB684FF0B04260
:1026880023F0885323F48033D360FEF7CBFA7861C4
:1026980008E0FEF7C7FA02467B69D31A0A2B01D96C
:1026A80003232FE0FFF717FC0346002BF1D128E0A6
:1026B8007B68DB6A012B01D1012323E04FF0B04393
:1026C800DB68BB61BB6903F003027B681B6B9A4242
:1026D80015D1BB6903F070027B685B6B9A420ED11F
:1026E800BB6903F4FE427B689B6B1B029A4206D1CE
:1026F800BB6903F060427B685B6C9A4201D001239E
:1027080000E0002318462037BD4680BD8C80C111EB
:1027180080B584B000AF786039607B68002B01D148
:1027280001230FE1894B1B6803F007033A689A42BB
:102738001BD9864B1B6823F0070284493B68134367
:102748000B60FEF76FFAF86008E0FEF76BFA0246D6
:10275800FB68D31A022B01D90323F3E07B4B1B68D8
:1027680003F007033A689A42EFD17B681B6803F0CD
:102778000203002B16D07B689B681846FFF728FBDE
:10278800FEF750FAF86008E0FEF74CFA0246FB68DC
:10279800D31A022B01D90323D4E0FFF7DAFB03464F
:1027A800002BF1D07B681B6803F04003002B16D088
:1027B8007B685B691846FFF71EFBFEF733FAF86083
:1027C80008E0FEF72FFA0246FB68D31A022B01D95C
:1027D8000323B7E0FFF7CEFB0346002BF1D07B685D
:1027E8001B6803F00403002B16D07B68DB681846CF
:1027F800FFF717FBFEF716FAF86008E0FEF712FA83
:102808000246FB68D31A022B01D903239AE0FFF78B
:10281800C3FB0346002BF1D07B681B6803F0080359
:10282800002B17D07B681B69DB001846FFF70CFBF1
:10283800FEF7F8F9F86008E0FEF7F4F90246FB68DD
:10284800D31A022B01D903237CE0FFF7B6FB03461A
:10285800002BF1D07B681B6803F00103002B43D0E9
:102868007B685B68022B06D1FFF799F90346002BBA
:102878001ED1012366E07B685B68032B06D1FFF756
:102888002AFB0346002B13D101235BE07B685B68BE
:10289800002B06D1FFF733FA0346002B08D101239A
:1028A80050E0FFF7A9F90346002B01D1012349E0C5
:1028B8007B685B681846FFF76DFAFEF7B3F9F860B6
:1028C8000AE0FEF7AFF90246FB68D31A41F28832F4
:1028D800934201D9032335E0FFF76FFA02467B687C
:1028E8005B689B009A42ECD1184B1B6803F0070306
:1028F8003A689A421BD2154B1B6823F0070213490A
:102908003B6813430B60FEF78DF9F86008E0FEF7AB
:1029180089F90246FB68D31A022B01D9032311E077
:102928000A4B1B6803F007033A689A42EFD100F09C
:10293800B3F80346064A1360064B1B681846FEF7B1
:1029480025F9034618461037BD4680BD004000589B
:10295800080000200C00002090B587B000AF0023CD
:102968007B6100233B61FFF728FAB860FFF7E6FABE
:102978007860BB68002B05D0BB680C2B39D17B680D
:10298800012B36D1FFF7CBF90346002B15D1FFF702
:10299800C6F90346012B06D1FFF7D1F903461B0AF6
:1029A80003F00F0305E0FFF7D5F903461B0A03F010
:1029B8000F03364A52F8233014E0FFF7B0F9034604
:1029C800012B06D1FFF7BBF903461B0903F00F03E0
:1029D80005E0FFF7BFF903461B0903F00F032B4A75
:1029E80052F823303B61BB68002B15D13B697B61F2
:1029F80012E0BB68042B02D1254B7B610CE0BB685D
:102A0800082B09D1FFF79EF80346012B02D1204B72
:102A18007B6101E01F4B7B61FFF7CFF903460C2B6D
:102A28002FD1FFF78BFA78607B68022B03D07B6885
:102A3800032B03D00DE0164BFB600DE0FFF782F887
:102A48000346012B02D1124BFB6005E0114BFB60E2
:102A580002E03B69FB6000BFFFF74EFA0246FB68E5
:102A680003FB02F4FFF75FFA03461B090133B4FBCB
:102A7800F3F4FFF74DFA03465B0F0133B4FBF3F3AE
:102A88007B617B6918461C37BD4690BD883E0008AF
:102A98000024F4000048E80198B500AFFFF75CFF98
:102AA8000446FFF7E4F903461B0903F00F03034A42
:102AB80052F82330B4FBF3F3184698BD483E00089B
:102AC80090B585B000AF78607B681B0903F00F03F1
:102AD800104A52F82330FB60FFF7D4F903461B096C
:102AE80003F00F030C4A52F82330FA68B2FBF3F3F1
:102AF800BB60BB68094AA2FB03239C0CFEF7E8FFF6
:102B080003461946204600F00BF8034618461437CA
:102B1800BD4690BD883E0008483E000883DE1B4342
:102B280080B58EB000AF786039603C4A07F1200369
:102B380092E80300186004331980394A07F1180332
:102B480092E80300186004331980364A07F10C0331
:102B580007CA83E8070000237B633B68B3F5007F5F
:102B68001DD100233B6316E03B6B5B0007F1380285
:102B7800134433F8183C1A467B68934208D83B6BD9
:102B88009B0007F13802134453F82C3C7B6323E085
:102B98003B6B01333B633B6B022BE5D91CE0002305
:102BA800FB6216E0FB6A5B0007F13802134433F856
:102BB800203C1A467B68934208D8FB6A9B0007F1C1
:102BC8003802134453F82C3C7B6305E0FB6A01335D
:102BD800FB62FB6A022BE5D9134B1B6823F0070243
:102BE80011497B6B13430B60FEF71CF8B86208E0D1
:102BF800FEF718F80246BB6AD31A022B01D9032341
:102C080007E0094B1B6803F007037A6B9A42EFD180
:102C1800002318463837BD4680BD00BFD0300008B5
:102C2800D8300008E03000080040005880B400AFF9
:102C38004FF0B043D3F8903003F00203022B01D1D8
:102C4800012300E000231846BD4680BC704780B4CD
:102C580083B000AF78604FF0B043D3F888207B682A
:102C68001B0CDB431A407B689BB24FF0B041134307
:102C7800C1F8883000BF0C37BD4680BC704780B4AF
:102C880083B000AF78604FF0B043D3F8883023F4B6
:102C980040724FF0B0417B681343C1F8883000BFE1
:102CA8000C37BD4680BC704780B483B000AF7860F5
:102CB8004FF0B043D3F8883023F440624FF0B0416E
:102CC8007B681343C1F8883000BF0C37BD4680BC11
:102CD800704780B483B000AF78604FF0B043D3F84A
:102CE80088207B681B0903F47F23DB431A407B6839
:102CF8001B0103F47F234FF0B0411343C1F8883020
:102D080000BF0C37BD4680BC704780B483B000AFAD
:102D180078604FF0B043D3F888207B681B0C1B0405
:102D2800DB431A407B681B044FF0B0411343C1F8E2
:102D3800883000BF0C37BD4680BC704780B483B074
:102D480000AF78604FF0B043D3F8883023F04042AA
:102D58004FF0B0417B681343C1F8883000BF0C378F
:102D6800BD4680BC704780B483B000AF78604FF038
:102D7800B043D3F8883023F040524FF0B0417B681D
:102D88001343C1F8883000BF0C37BD4680BC70477C
:102D980080B483B000AF78604FF0B043D3F8903080
:102DA80023F440724FF0B0417B681343C1F8903070
:102DB80000BF0C37BD4680BC704780B400AF4FF0F1
:102DC800B043D3F8903003F440731846BD4680BC36
:102DD800704780B400AF4FF0B043D3F890304FF055
:102DE800B04243F48033C2F8903000BFBD4680BC87
:102DF800704780B400AF4FF0B043D3F890304FF035
:102E0800B04223F48033C2F8903000BFBD4680BC86
:102E18007047000080B586B000AF786000237B6102
:102E28000023FB740023BB747B681B6803F48033A6
:102E3800002B58D0FEF73EFEFDF7F4FEF86009E0DF
:102E4800FDF7F0FE0246FB68D31A022B02D90323D2
:102E5800FB7406E07B4B1B6803F48073B3F5807F3B
:102E6800EED1FB7C002B3CD1FFF7A7FF02467B6825
:102E78005B6B9A420FD04FF0B043D3F8903023F4F5
:102E880040737B61FFF7A5FFFFF7B3FF4FF0B04238
:102E98007B69C2F890307B6903F00203002B14D0E1
:102EA800FDF7C0FEF8600BE0FDF7BCFE0246FB68CC
:102EB800D31A41F28832934202D90323FB7404E007
:102EC800FFF7B4FE0346012BEED1FB7C002B05D1A6
:102ED8007B685B6B1846FFF75BFF04E0FB7CBB7409
:102EE80001E0FB7CBB747B681B6803F00103002BCB
:102EF80004D07B685B681846FFF7A9FE7B681B68EF
:102F080003F00203002B04D07B689B681846FFF788
:102F18009EFE7B681B6803F02003002B04D07B68AF
:102F28001B691846FFF7C0FE7B681B6803F4007333
:102F3800002B04D07B681B6A1846FFF7E6FE7B6807
:102F48001B6803F48063002B04D07B685B6A184617
:102F5800FFF7DBFE7B681B6803F40063002B04D0DB
:102F68007B689B6A1846FFF7D0FE7B681B6803F0F6
:102F78004003002B04D07B685B691846FFF7A9FE65
:102F88007B681B6803F08003002B04D07B689B6977
:102F98001846FFF79EFE7B681B6803F48073002BBE
:102FA80004D07B68DB691846FFF793FE7B681B68D3
:102FB80003F01003002B11D07B68DB681846FFF77D
:102FC8005EFE7B68DB68B3F5807F07D14FF0B043C6
:102FD800DB684FF0B04243F08073D3607B681B68B6
:102FE80003F40043002B10D07B681B6B1846FFF7D7
:102FF800A5FE7B681B6B002B07D14FF0B043DB6845
:103008004FF0B04243F08073D3607B681B6803F4D1
:103018008043002B11D07B68DB6A1846FFF7A3FEBC
:103028007B68DB6AB3F1005F07D14FF0B043DB6820
:103038004FF0B04243F48033D360BB7C1846183756
:10304800BD4680BD0004005870B50D4D0D4C641B85
:10305800A4100026A64209D10B4D0C4C00F020F814
:10306800641BA4100026A64205D170BD55F8043B88
:1030780098470136EEE755F8043B98470136F2E7E2
:10308800C83E0008C83E0008C83E0008CC3E0008FC
:1030980002440346934200D1704703F8011BF9E745
:1030A800F8B500BFF8BC08BC9E467047F8B500BF2D
:0830B800F8BC08BC9E467047FD
:1030C0007374617274696E67000000002E2E2E000A
:1030D000120024003000000006000C001000000068
:1030E00000000000010000000200000000000000DD
:1030F00000000000000000000000000000000000D0
:1031000000000000000000000000000000000000BF
:103110000000000C000C000C000C000C000C000C5B
:10312000000C000C000C000C0000000C000C000057
:10313000000000000000001B001B001B001B001B08
:10314000000000000000000000000000000000007F
:1031500000000000000000000000801980198019A4
:103160008019C07FC07F80190033C07FC07F0033CB
:103170000033003300330000000000000000001E98
:10318000003F807580650074003C001E00078005CC
:10319000806580658075003F001E0004000400000B
:1031A0000000007000D840D8C0D880D90073000655
:1031B000000C801BC036C066C046C00680030000FD
:1031C000000000000000001E003F00330033003309
:1031D000001E000CC03CC066806380618063C03EFE
:1031E000801C0000000000000000000C000C000C1F
:1031F000000C000C000000000000000000000000B7
:10320000000000000000000000000000800000013D
:103210000003000600060004000C000C000C000C6B
:10322000000C000C000400060006000300018000F2
:10323000002000100018000C000C0004000600061E
:1032400000060006000600060004000C000C001832
:10325000001000200000000C002D003F001E003375
:10326000000000000000000000000000000000005E
:103270000000000000000000000000000000000C42
:10328000000C000C000CC0FFC0FF000C000C000C78
:10329000000C000000000000000000000000000022
:1032A000000000000000000000000000000000001E
:1032B000000000000000000C000C000400040008E6
:1032C00000000000000000000000000000000000FE
:1032D0000000001E001E00000000000000000000B2
:1032E00000000000000000000000000000000000DE
:1032F0000000000000000000000000000000000CC2
:10330000000C0000000000000000000300030003A8
:103310000006000600060006000C000C000C000C65
:103320000018001800180000000000000000001E37
:10333000003F0033806180618061806D806D8061BD
:10334000806180610033003F001E0000000000002B
:1033500000000006000E001E0036002600060006D3
:103360000006000600060006000600060006000033
:10337000000000000000001E003F8073806180613B
:10338000800100030006000C001800300060807F00
:10339000807F0000000000000000001C003E006371
:1033A00000630003000E000E0003800180018061B5
:1033B0008073003F001E00000000000000000006B7
:1033C000000E000E001E001E0016003600360066BD
:1033D000807F807F000600060006000000000000DD
:1033E0000000007F007F006000600060006E007FD2
:1033F00080638001800180618073003F001E0000B7
:10340000000000000000001E003F8033806100606B
:10341000006E007F80738061806180618033003F37
:10342000001E0000000000000000807F807F8001FF
:103430000003000300060006000C000C000C00084E
:103440000018001800180000000000000000001E16
:10345000003F8063806180610021001E003F806129
:10346000806180618061003F001E0000000000005C
:103470000000001E003F00738061806180618073E6
:10348000803F801D800180610073003F001E0000AE
:103490000000000000000000000000000000000C20
:1034A000000C000000000000000000000000000C04
:1034B000000C000000000000000000000000000000
:1034C00000000000000C000C0000000000000000E4
:1034D0000000000C000C00040004000800000000C4
:1034E0000000000080008003000E003800600038FB
:1034F000000E8003800000000000000000000000BB
:1035000000000000000000000000807F807F0000BD
:103510000000807F807F00000000000000000000AD
:1035200000000000000000000000000000400070EB
:10353000001C000780010007001C00700040000014
:1035400000000000000000000000001F803FC0716C
:10355000C060C000C00180030007000E000C000C1A
:103560000000000C000C0000000000000000001E25
:10357000003F803180718063806F806D806D806FCF
:10358000806700600032003E001C00000000000068
:103590000000000E000E001B001B001B001B8031F2
:1035A0008031803F803F8031C060C060C0600000DB
:1035B000000000000000007C007E006300630063E8
:1035C0000063007E007E0063806180618063007F15
:1035D000007E0000000000000000001E003F80315F
:1035E00080610060006000600060006000608061D9
:1035F0008031003F001E0000000000000000007C41
:10360000007F006380638061806180618061806190
:10361000806100630063007E007C00000000000009
:103620000000807F807F0060006000600060007F9D
:10363000007F0060006000600060807F807F00008D
:10364000000000000000807F807F0060006000605C
:103650000060007F007F006000600060006000602C
:1036600000600000000000000000001E003F8031EC
:1036700080610060006000608063806380618061C1
:103680008031803F001E00000000000000008061CB
:1036900080618061806180618061807F807F8061E6
:1036A00080618061806180618061000000000000B5
:1036B0000000003F003F000C000C000C000C000C50
:1036C000000C000C000C000C000C003F003F000040
:1036D0000000000000008001800180018001800165
:1036E0008001800180018001806180618073003FE2
:1036F000001E0000000000000000C0608061006348
:1037000000660066006C0078007C0066006600635E
:1037100080618061C0600000000000000000006067
:103720000060006000600060006000600060006099
:10373000006000600060807F807F0000000000006B
:103740000000C071C071C07BC07AC06AC06AC06E20
:10375000C064C060C060C060C060C060C060000085
:10376000000000000000807180718079807980798C
:10377000806D806D806D8065806780678067806305
:1037800080630000000000000000001E003F0033C6
:103790008061806180618061806180618061806121
:1037A0000033003F001E0000000000000000007E0B
:1037B000007F80638061806180618063007F007E24
:1037C0000060006000600060006000000000000019
:1037D0000000001E003F00338061806180618061D5
:1037E00080618061806580670033803F401E0000FB
:1037F000000000000000007E007F80638061806127
:103800008063007F007E00660063006380618061EA
:10381000C0600000000000000000000E001F8031AA
:10382000803100300038001E000780038061806115
:103830008031003F001E0000000000000000C0FFBB
:10384000C0FF000C000C000C000C000C000C000C65
:10385000000C000C000C000C000C0000000000002C
:103860000000806180618061806180618061806131
:1038700080618061806180618073003F001E000074
:10388000000000000000C060C060C0608031803176
:103890008031001B001B001B001B000E000E000EE1
:1038A00000040000000000000000C0C0C0C0C0C094
:1038B000C0C0C0C0C0CC804C804C805E8052805262
:1038C0008073806180610000000000000000C0C0C3
:1038D000806080610033003B001E000C000C001E65
:1038E000001F003B80718061C0C00000000000002C
:1038F0000000C0C08061806100330033001E001EE4
:10390000000C000C000C000C000C000C000C000063
:10391000000000000000803F803F800100030003A2
:103920000006000C000C0018001800300060807FBA
:10393000807F000000000000000F000F000C000C52
:10394000000C000C000C000C000C000C000C000C17
:10395000000C000C000C000C000F000F0000001801
:1039600000180018000C000C000C000C00060006EB
:103970000006000600030003000300000000000032
:10398000001E001E000600060006000600060006D7
:1039900000060006000600060006000600060006F7
:1039A000001E001E0000000C000C001E0012003360
:1039B0000033806180610000000000000000000012
:1039C00000000000000000000000000000000000F7
:1039D00000000000000000000000000000000000E7
:1039E0000000000000000000E0FF000000000038C0
:1039F0000018000C000000000000000000000000A3
:103A000000000000000000000000000000000000B6
:103A100000000000000000000000001F803F8061E7
:103A20008001801F803F80618063807FC0380000FC
:103A30000000000000000060006000600060006E98
:103A4000007F807380618061806180618073007F0E
:103A5000006E0000000000000000000000000000F8
:103A60000000001E003F8073806100600060806184
:103A70008073003F001E0000000000000000800175
:103A8000800180018001801D803F807380618061A2
:103A9000806180618073803F801D00000000000015
:103AA00000000000000000000000001E003F007346
:103AB0008061807F807F00608071003F001E000079
:103AC000000000000000C007C00F000C000C807F49
:103AD000807F000C000C000C000C000C000C000C93
:103AE000000C0000000000000000000000000000CA
:103AF000801D803F80738061806180618061807300
:103B0000803F801D80018063007F003E00000060D8
:103B1000006000600060006F807F80718061806164
:103B20008061806180618061806100000000000030
:103B300000000006000600000000003E003E0006F7
:103B4000000600060006000600060006000600004B
:103B5000000000000006000600000000003E003EDD
:103B60000006000600060006000600060006000625
:103B700000060046007E003C00000060006000601F
:103B80000060806100630066006C007C007600636A
:103B900000638061C0600000000000000000003E83
:103BA000003E0006000600060006000600060006AD
:103BB00000060006000600060006000000000000E7
:103BC0000000000000000000000080DDC0FFC0CE4B
:103BD000C0CCC0CCC0CCC0CCC0CCC0CCC0CC000011
:103BE0000000000000000000000000000000006F66
:103BF000807F80718061806180618061806180618F
:103C000080610000000000000000000000000000D3
:103C10000000001E003F80738061806180618061D0
:103C20008073003F001E0000000000000000000044
:103C300000000000006E007F807380618061806101
:103C400080618073007F006E006000600060006033
:103C50000000000000000000801D803F8073806134
:103C60008061806180618073803F801D8001800160
:103C700080018001000000000000000000000067DB
:103C8000803F00390030003000300030003000301C
:103C900000300000000000000000000000000000F4
:103CA0000000001E803F80610060007F803F800137
:103CB0008061007F001E0000000000000000000086
:103CC000000800180018007F007F00180018001876
:103CD000001800180018801F800F0000000000006E
:103CE0000000000000000000000080618061806131
:103CF00080618061806180618063807F803D0000A1
:103D00000000000000000000000000000000C06093
:103D1000803180318031001B001B001B000E000E23
:103D2000000600000000000000000000000000008D
:103D3000000080DD80DD80DD0055005500550077F6
:103D400000770022002200000000000000000000B8
:103D5000000000000000806100330033001E000CF2
:103D6000000C001E003300338061000000000000E2
:103D7000000000000000000080618061803100339D
:103D80000033001B001B001B000E000E000E001C69
:103D9000007C007000000000000000000000C07FF8
:103DA000C07F800100030006000C00180030C07FB7
:103DB000C07F0000000000008003800700060006AE
:103DC000000600060006000E001C001C000E000687
:103DD00000060006000600068007800300060006B5
:103DE00000060006000600060006000600060006A3
:103DF0000006000600060006000600060006000693
:103E00000038003C000C000C000C000C000C000EF4
:103E100000070007000E000C000C000C000C000C4A
:103E2000003C00380000000000000000000000001E
:103E300000008038807F0047000000000000000084
:103E4000000000000000000001000000030000006E
:103E50000500000001000000010000000600000055
:103E60000A00000020000000020000000400000022
:103E7000080000001000000040000000800000006A
:103E80000001000000020000A0860100400D0300B8
:103E9000801A060000350C0040420F0080841E008E
:103EA00000093D0000127A000024F40000366E0183
:103EB0000048E801006CDC02000000000000000087
:083EC0000000000000000000FA
:043EC8005D01000890
:043ECC0039010008B0
:103ED0000B120000EC30000800093D00100000004B
:043EE00001000000DD
:0400000508000B01E3
:00000001FF
